{
  "_format": "hh-sol-artifact-1",
  "contractName": "GumballMachine",
  "sourceName": "contracts/gumball.sol",
  "abi": [
    {
      "inputs": [],
      "stateMutability": "nonpayable",
      "type": "constructor"
    },
    {
      "inputs": [
        {
          "internalType": "uint256",
          "name": "input",
          "type": "uint256"
        }
      ],
      "name": "addFreshGumballs",
      "outputs": [],
      "stateMutability": "nonpayable",
      "type": "function"
    },
    {
      "inputs": [],
      "name": "getGumball",
      "outputs": [],
      "stateMutability": "nonpayable",
      "type": "function"
    },
    {
      "inputs": [],
      "name": "getNumberOfGumballs",
      "outputs": [
        {
          "internalType": "uint256",
          "name": "",
          "type": "uint256"
        }
      ],
      "stateMutability": "view",
      "type": "function"
    }
  ],
  "bytecode": "0x6080604052606460005534801561001557600080fd5b50610228806100256000396000f3fe608060405234801561001057600080fd5b50600436106100415760003560e01c80632e111e231461004657806375738a4414610062578063d05254de1461006c575b600080fd5b610060600480360381019061005b919061010f565b61008a565b005b61006a6100b2565b005b6100746100cb565b604051610081919061014b565b60405180910390f35b6000811161009757600080fd5b806000808282546100a89190610195565b9250508190555050565b6000808154809291906100c4906101c9565b9190505550565b60008054905090565b600080fd5b6000819050919050565b6100ec816100d9565b81146100f757600080fd5b50565b600081359050610109816100e3565b92915050565b600060208284031215610125576101246100d4565b5b6000610133848285016100fa565b91505092915050565b610145816100d9565b82525050565b6000602082019050610160600083018461013c565b92915050565b7f4e487b7100000000000000000000000000000000000000000000000000000000600052601160045260246000fd5b60006101a0826100d9565b91506101ab836100d9565b92508282019050808211156101c3576101c2610166565b5b92915050565b60006101d4826100d9565b9150600082036101e7576101e6610166565b5b60018203905091905056fea264697066735822122005be7e86142644accc2ecf75286a14cc32b2527911eb4d40c039d390471ff8d264736f6c63430008180033",
  "linkReferences": {},
  "deployedLinkReferences": {}
}